S010000054686520536166652E7372656354
S11300000C942A000C9447000C9447000C9447006D
S11300100C9447000C9447000C9447000C94470040
S11300200C9447000C9447000C9447000C94470030
S11300300C9447000C9447000C9447000C94470020
S11300400C9447000C9447000C9447000C94470010
S11300500C94470011241FBECFE5D8E0DEBFCDBF0E
S113006010E0A0E6B0E0E0E0F9E002C005900D92F7
S1130070A63CB107D9F720E0A6ECB0E001C01D9280
S1130080AA3CB207E1F70E94C9010C947E040C94C7
S1130090000041E060E083E40E94AB0241E061E0E3
S11300A083E40E94AB0241E062E083E40E94AB027D
S11300B041E063E083E40E94AB0240E064E083E457
S11300C00E94AB0240E065E083E40E94AB0240E0A2
S11300D066E083E40E94AB0240E067E083E40E94B0
S11300E0AB0241E064E083E40E94E00341E065E0A8
S11300F083E40E94E00341E066E083E40E94E003BD
S113010041E067E083E40E94E00308950F931F93A6
S1130110CF93DF93CDB7DEB760970FB6F894DEBF09
S11301200FBECDBF80E1E0E6F0E0DE011196019064
S11301300D928A95E1F700E041E060E083E40E94DB
S11301401B0341E061E083E40E941B0341E062E0A1
S113015083E40E941B0341E063E083E40E941B03E9
S113016040E0602F83E40E941B0310E064E0610F11
S113017083E40E948B0381110DC0E1E0F0E0EC0FF9
S1130180FD1F84E0089FE00DF11D1124E10FF11D16
S1130190808107C01F5F143049F70F5F043061F698
S11301A08FEF60960FB6F894DEBF0FBECDBFDF9120
S11301B0CF911F910F91089541E061E082E40E9484
S11301C01B038FE99FE00197F1F700C0000040E0B6
S11301D061E082E40E941B038FE99FE00197F1F73D
S11301E000C000000895CF93C82F682F62956F70E8
S11301F081E40E94500441E060E082E40E941B0319
S11302000E94DC006C2F81E40E94500441E060E015
S113021082E40E941B030E94DC008FEC97E00197AC
S1130220F1F700C00000CF910895CF93C82F682F35
S113023062956F7081E40E94500440E060E082E4C3
S11302400E941B030E94DC006C2F81E40E94500476
S113025040E060E082E40E941B030E94DC008FEC1B
S113026097E00197F1F700C00000CF91089581E075
S11302700E94150108952FEF81EE94E021508040F3
S11302809040E1F700C0000041E064E081E40E9496
S1130290AB0241E065E081E40E94AB0241E066E02C
S11302A081E40E94AB0241E067E081E40E94AB027A
S11302B041E061E082E40E94AB0241E062E082E45A
S11302C00E94AB0241E060E082E40E94AB0240E0A5
S11302D062E082E40E941B0382E00E9415018FE128
S11302E09EE40197F1F700C0000088E20E94150126
S11302F08FEC97E00197F1F700C000008CE00E94BA
S113030015018FEC97E00197F1F700C0000081E040
S11303100E9415018FE19EE40197F1F700C00000EF
S113032086E00E9415018FEC97E00197F1F700C079
S1130330000008959FEF980F923070F49FEF960F8E
S1130340903160F4813019F48FE7860F0AC082304F
S113035039F48FEB860F05C080E803C080E801C044
S113036080E00E9415018FEC97E00197F1F700C03F
S113037000000895CF93DF93EC018881882331F046
S113038021960E94F30089918111FBCFDF91CF91D7
S11303900895DF92EF92FF920F931F93CF93DF9311
S11303A00E943B010E94490080E290E00E9479048F
S11303B08F3F09F0BAC080E790E00E94BA0101E2E1
S11303C010E00E948600C82F8F3FD9F30E94F300EB
S11303D06BEE600F81E00E949A018AE20E94F300B2
S11303E02FEF84E39CE0215080409040E1F700C06F
S11303F000006C2FC8010E9471040F5F1F4F05326B
S11304001105F9F660E080E290E00E9471048DC06D
S1130410F70103830283018300830E9437018CE781
S113042090E00E94BA01C6ECD0E01DE00E94860074
S113043088838F3FD9F30E94F300612F81E00E94EB
S11304409A018AE20E94F300FFEF24E38CE0F1506A
S113045020408040E1F700C000001F5F2196113169
S113046029F781E290E00E947904F70190818913D1
S113047027C082E290E00E947904F70191818913F8
S11304801FC083E290E00E947904F70192818913EE
S113049017C084E290E00E947904F70193818913E4
S11304A00FC00E94370189E890E00E94BA0161E020
S11304B082E00E949A0184E990E00E94BA0141C05E
S11304C0F0E3DF1619F10E94370180EA90E00E9400
S11304D0BA012FEF89E698E1215080409040E1F77E
S11304E000C000000E9437018BEA90E00E94BA012C
S11304F08D2D0E94F300EFEFF9E628E1E150F04082
S11305002040E1F700C00000DA9482CF0E94370156
S113051080EA90E00E94BA0161E082E00E949A01C0
S113052089EB90E00E94BA010CC00F2EF2E3DF2E9B
S1130530F02D0F2EF6ECEF2EF0E0FF2EF02D0FEF46
S113054067CF80E090E0DF91CF911F910F91FF90F2
S1130550EF90DF900895823419F118F4813439F062
S113056008958334B1F1843409F44CC008954130C2
S113057059F42AB381E090E002C0880F991F6A956C
S1130580E2F7822B8ABB08952AB381E090E002C08F
S1130590880F991F6A95E2F7809582238ABB089594
S11305A0413059F427B381E090E002C0880F991FCD
S11305B06A95E2F7822B87BB089527B381E090E028
S11305C002C0880F991F6A95E2F78095822387BB42
S11305D00895413059F424B381E090E002C0880FBB
S11305E0991F6A95E2F7822B84BB089524B381E0B6
S11305F090E002C0880F991F6A95E2F780958223E4
S113060084BB0895413059F421B381E090E002C0E5
S1130610880F991F6A95E2F7822B81BB089521B355
S113062081E090E002C0880F991F6A95E2F78095F7
S1130630822381BB0895823419F118F4813439F08E
S113064008958334B1F1843409F44CC008954130E1
S113065059F42BB381E090E002C0880F991F6A958A
S1130660E2F7822B8BBB08952BB381E090E002C0AC
S1130670880F991F6A95E2F7809582238BBB0895B2
S1130680413059F428B381E090E002C0880F991FEB
S11306906A95E2F7822B88BB089528B381E090E045
S11306A002C0880F991F6A95E2F78095822388BB60
S11306B00895413059F425B381E090E002C0880FD9
S11306C0991F6A95E2F7822B85BB089525B381E0D3
S11306D090E002C0880F991F6A95E2F78095822303
S11306E085BB0895413059F422B381E090E002C003
S11306F0880F991F6A95E2F7822B82BB089522B373
S113070081E090E002C0880F991F6A95E2F7809516
S1130710822382BB08958234D9F018F4813431F0F5
S11307204DC0833439F18434B9F148C029B381E030
S113073090E0062E02C0880F991F0A94E2F730E079
S11307408223932302C0959587956A95E2F70895CD
S113075026B381E090E0062E02C0880F991F0A9408
S1130760E2F730E08223932302C0959587956A953A
S1130770E2F7089523B381E090E0062E02C0880FCB
S1130780991F0A94E2F730E08223932302C09595DF
S113079087956A95E2F7089520B381E090E0062EEC
S11307A002C0880F991F0A94E2F730E08223932352
S11307B002C0959587956A95E2F7089580E00895BB
S11307C0823419F118F4813439F008958334B1F185
S11307D0843409F44CC00895413059F42BB381E0BA
S11307E090E002C0880F991F6A95E2F7822B8BBBB9
S11307F008952BB381E090E002C0880F991F6A9599
S1130800E2F7809582238BBB0895413059F428B3D5
S113081081E090E002C0880F991F6A95E2F7822B6D
S113082088BB089528B381E090E002C0880F991F27
S11308306A95E2F78095822388BB0895413059F484
S113084025B381E090E002C0880F991F6A95E2F712
S1130850822B85BB089525B381E090E002C0880F08
S1130860991F6A95E2F78095822385BB08954130EC
S113087059F422B381E090E002C0880F991F6A9571
S1130880E2F7822B82BB089522B381E090E002C09C
S1130890880F991F6A95E2F78095822382BB089599
S11308A0CF93DF93D82FC62F462F417064E00E9468
S11308B01B03C1FB442740F965E08D2F0E941B03F5
S11308C0C2FB442740F966E08D2F0E941B03C3FB43
S11308D0442740F967E08D2F0E941B03DF91CF91DD
S11308E008958EBB9FBB6DBBE29AE19AE199FECF5E
S11308F008958EBB9FBBE09A8DB30895F894FFCF03
S11309003738392F3435362A3132332D41303D2BA7
S11309105365742050617373203A20004368656303
S11309206B2050617373203A0052696768742050D9
S11309306173730053616665204F70656E65640072
S113094057726F6E672050617373005472696573D8
S1130950204C656674203A20005361666520436C20
S10909606F7365640000E2
S9030000FC
